:020000040000fa
:080000000002040000000000f2
:020000040000fa
:0400080012060000dc
:020000040000fa
:04000c0012060000d8
:020000040000fa
:0400100012060000d4
:020000040000fa
:0400140012060000d0
:020000040000fa
:0400180012060000cc
:020000040000fa
:04001c0012060000c8
:020000040000fa
:0400200012060000c4
:020000040000fa
:0400240012060000c0
:020000040000fa
:0400280012060000bc
:020000040000fa
:04002c0012060000b8
:020000040000fa
:0400300012060000b4
:020000040000fa
:04003400fa020000cc
:020000040000fa
:0400380012060000ac
:020000040000fa
:04003c0012060000a8
:020000040000fa
:0400400012060000a4
:020000040000fa
:0400440012060000a0
:020000040000fa
:04004800120600009c
:020000040000fa
:04004c001206000098
:020000040000fa
:040050001206000094
:020000040000fa
:040054001206000090
:020000040000fa
:04005800120600008c
:020000040000fa
:04005c001206000088
:020000040000fa
:040060001206000084
:020000040000fa
:040064001206000080
:020000040000fa
:04006800120600007c
:020000040000fa
:04006c001206000078
:020000040000fa
:040070001206000074
:020000040000fa
:040074001206000070
:020000040000fa
:04007800120600006c
:020000040000fa
:04007c001206000068
:020000040000fa
:040080001206000064
:020000040000fa
:040084001206000060
:020000040000fa
:04008800120600005c
:020000040000fa
:04008c001206000058
:020000040000fa
:040090001206000054
:020000040000fa
:040094001206000050
:020000040000fa
:04009800120600004c
:020000040000fa
:04009c001206000048
:020000040000fa
:0400a0001206000044
:020000040000fa
:0400a4001206000040
:020000040000fa
:0400a800120600003c
:020000040000fa
:0400ac001206000038
:020000040000fa
:0400b0001206000034
:020000040000fa
:0400b4005a050000e9
:020000040000fa
:0400b800120600002c
:020000040000fa
:0400bc001206000028
:020000040000fa
:0400c0001206000024
:020000040000fa
:0400c4001206000020
:020000040000fa
:0400c800120600001c
:020000040000fa
:0400cc001206000018
:020000040000fa
:0400d0001206000014
:020000040000fa
:0400d4001206000010
:020000040000fa
:0400d800120600000c
:020000040000fa
:0400dc001206000008
:020000040000fa
:0400e0001206000004
:020000040000fa
:0400e4001206000000
:020000040000fa
:0400e80012060000fc
:020000040000fa
:0400ec0012060000f8
:020000040000fa
:0400f00012060000f4
:020000040000fa
:0400f40012060000f0
:020000040000fa
:0400f80012060000ec
:020000040000fa
:0400fc0012060000e8
:020000040000fa
:0401000012060000e3
:020000040000fa
:0401040012060000df
:020000040000fa
:0401080012060000db
:020000040000fa
:04010c0012060000d7
:020000040000fa
:0401100012060000d3
:020000040000fa
:0401140012060000cf
:020000040000fa
:0401180012060000cb
:020000040000fa
:04011c0012060000c7
:020000040000fa
:0401200012060000c3
:020000040000fa
:0401240012060000bf
:020000040000fa
:0401280012060000bb
:020000040000fa
:04012c0012060000b7
:020000040000fa
:0401300012060000b3
:020000040000fa
:0401340012060000af
:020000040000fa
:0401380012060000ab
:020000040000fa
:04013c0012060000a7
:020000040000fa
:0401400012060000a3
:020000040000fa
:04014400120600009f
:020000040000fa
:04014800120600009b
:020000040000fa
:04014c001206000097
:020000040000fa
:040150001206000093
:020000040000fa
:04015400120600008f
:020000040000fa
:04015800120600008b
:020000040000fa
:04015c001206000087
:020000040000fa
:040160001206000083
:020000040000fa
:04016400120600007f
:020000040000fa
:04016800120600007b
:020000040000fa
:04016c001206000077
:020000040000fa
:040170001206000073
:020000040000fa
:04017400120600006f
:020000040000fa
:04017800120600006b
:020000040000fa
:04017c001206000067
:020000040000fa
:040180001206000063
:020000040000fa
:04018400120600005f
:020000040000fa
:04018800120600005b
:020000040000fa
:04018c001206000057
:020000040000fa
:040190001206000053
:020000040000fa
:04019400120600004f
:020000040000fa
:04019800120600004b
:020000040000fa
:04019c001206000047
:020000040000fa
:0401a0001206000043
:020000040000fa
:0401a400120600003f
:020000040000fa
:0401a800120600003b
:020000040000fa
:0401ac001206000037
:020000040000fa
:0401b0001206000033
:020000040000fa
:0401b400120600002f
:020000040000fa
:0401b800120600002b
:020000040000fa
:0401bc001206000027
:020000040000fa
:0401c0001206000023
:020000040000fa
:0401c400120600001f
:020000040000fa
:0401c800120600001b
:020000040000fa
:0401cc001206000017
:020000040000fa
:0401d0001206000013
:020000040000fa
:0401d400120600000f
:020000040000fa
:0401d800120600000b
:020000040000fa
:0401dc001206000007
:020000040000fa
:0401e0001206000003
:020000040000fa
:0401e40012060000ff
:020000040000fa
:0401e80012060000fb
:020000040000fa
:0401ec0012060000f7
:020000040000fa
:0401f00012060000f3
:020000040000fa
:0401f40012060000ef
:020000040000fa
:0401f80012060000eb
:020000040000fa
:0401fc0012060000e7
:020000040000fa
:0402000012060000e2
:020000040000fa
:0402040012060000de
:020000040000fa
:0402080012060000da
:020000040000fa
:04020c0012060000d6
:020000040000fa
:0402100012060000d2
:020000040000fa
:0402140012060000ce
:020000040000fa
:0402180012060000ca
:020000040000fa
:04021c0012060000c6
:020000040000fa
:0402200012060000c2
:020000040000fa
:0402240012060000be
:020000040000fa
:0402280012060000ba
:020000040000fa
:04022c0012060000b6
:020000040000fa
:0402300012060000b2
:020000040000fa
:0402340012060000ae
:020000040000fa
:0402380012060000aa
:020000040000fa
:04023c0012060000a6
:020000040000fa
:0402400012060000a2
:020000040000fa
:04024400120600009e
:020000040000fa
:04024800120600009a
:020000040000fa
:04024c001206000096
:020000040000fa
:040250001206000092
:020000040000fa
:04025400120600008e
:020000040000fa
:04025800120600008a
:020000040000fa
:04025c001206000086
:020000040000fa
:040260001206000082
:020000040000fa
:04026400120600007e
:020000040000fa
:04026800120600007a
:020000040000fa
:04026c001206000076
:020000040000fa
:040270001206000072
:020000040000fa
:04027400120600006e
:020000040000fa
:04027800120600006a
:020000040000fa
:04027c001206000066
:020000040000fa
:040280001206000062
:020000040000fa
:100400000f2021000eff24000e01880000000000d4
:10041000000020000000e000020032000001200087
:100420002002880014000700000207000000e0001e
:1004300003003a00201721000100200002003700cd
:100440000000200001002000810f70000100320038
:100450000f000700000020000000e0000200320052
:100460000000020000000000960e020000000000e4
:100470000040da000000fe00200020000000e00044
:1004800002003200100020009001880000000600e9
:10049000a1028800800478000000eb001f003700f4
:1004a000e284440054a0b4009905ba00e2844400f8
:1004b00054a0b4009906ba00e284440054a0b400e9
:1004c0000006eb00476fde00fd07b200ae018800ba
:1004d000636ce10003003a000ad801000000eb0061
:1004e0000e003700606ce10008003a00004deb00a0
:1004f0000a05e800020039003420ec000af0a000f0
:100500008b05e900f9ff3e00040037006168e10057
:10051000010032000086eb000b00070019c7ba008b
:100520000e04e0001905ba0003003a000a00e000da
:10053000dbff3a0000000600fe07b200ae028800b2
:100540008a047800f5ff37000cd0a300e20f4d00bd
:100550001c00390089027800354dba000a05e80010
:10056000020039003420ec000af0a0008b05e900fd
:100570000f003200254dba000a05e80002003900dc
:100580003420ec000af0a0008b05e90008003200de
:100590000c00e0000600320015cdba000a05e800a4
:1005a000020039003420ec000af0a0008b05e900bd
:1005b0008984e80054a0b4000b00e000e2ff3a0098
:1005c000000006009902ba00055d78008b05e9007d
:1005d000f7ff3200c82ade00055d78008b05e900d0
:1005e000f3ff32000c00e000f1ff320019ddba0029
:1005f000eeff37003600f800809fbe00829fbe00ed
:10060000849fbe00869fbe000000fa00c08180006b
:10061000d181800061004000e0804800c0818800f6
:10062000d181880010708000700060000000e00040
:1006300016003a0080818000e10f50000d003a0062
:10064000a08180000000e800a0818800a1818000d6
:10065000703e2000808f50000600340020002000f3
:1006600080818800803e20002082880010002000c9
:1006700010818800808180000000e00005003a00c1
:100680001000200080818800020037003030ef0029
:100690003430ef0091708000002020000080600066
:1006a0000000e00016003a0090818000e10f500049
:1006b0000d003a00b08180000000e800b0818800a1
:1006c000b1818000703e2000808f50000600340011
:1006d0002000200090818800803e20004082880019
:1006e0001000200030818800908180000000e00030
:1006f00005003a00100020009081880002003700b9
:100700003230ef003630ef009070800070006000f3
:100710000000e00005003a00100020000081880081
:100720003000200030808800030037002030ef00c8
:10073000a0002000308088009170800000802000a0
:10074000008060000000e00005003a00100020007a
:100750002081880030002000b0808800030037002e
:100760002430ef00a0002000b080880010818000bd
:10077000e10f500016003a00308280000000e900ce
:1007800030828800308280000000e00003003d00dd
:1007900020002000108188004c00370090708000fd
:1007a000700060000000e00048003a0020002000d7
:1007b00040818800608180008000e800f00f200008
:1007c00000806000608188002230ef003f00370029
:1007d00010818000e20f50001f003a00040ea800b4
:1007e000208280000000e9002082880020828000b2
:1007f0000000e00035003d001070800062006000e5
:100800000000e00006003a00040ea90040062000a7
:100810003082880030002000108188002b003700d3
:100820002182800080c72e00808f500027003d006d
:10083000040ea900400020004081880060818000f3
:100840008000e800f00f20000080600060818800d8
:100850002230ef001d00370010818000e30f5000b0
:100860001a003a00308280000000e90030828800df
:10087000308280000000e00008003d002830ef00da
:10088000608180008000e800f00f200000806000a0
:10089000608188002230ef000c00370090708000eb
:1008a000700060000000e00008003200300020000e
:1008b00040818800608180008000e800f00f200007
:1008c00000806000608188002230ef00308180006d
:1008d000e10f500017003a00508280000000e9004c
:1008e00050828800508280000000e00003003d003c
:1008f00020002000308188004f0037009170800078
:1009000000802000008060000000e0004a003a0003
:100910002000200050818800708180008000e80065
:10092000f00f200000806000708188002630ef000a
:100930004100370030818000e20f500020003a0073
:1009400015aea800408280000000e90040828800c7
:10095000408280000000e00037003d009170800080
:1009600000002400008060000000e00006003a0063
:1009700015aea900400620005082880030002000fb
:10098000308188002c0037004182800080c72e0013
:10099000808f500028003d0015aea90040002000c7
:1009a00050818800708180008000e800f00f2000f6
:1009b00000806000708188002630ef001e00370044
:1009c00030818000e30f50001b003a00508280000d
:1009d0000000e90050828800508280000000e000a2
:1009e00008003d002a30ef00708180008000e800a0
:1009f000f00f200000806000708188002630ef003a
:100a00000d003700917080000080200000806000a1
:100a10000000e00008003200300020005081880013
:100a2000708180008000e800f00f200000806000ee
:100a3000708188002630ef00c0818000d181800065
:100a4000820c20000300200079000700e00f500016
:100a5000e08f58000f003a00a07080004c00de00cc
:100a6000614060000004a200614060000080fb0063
:100a7000610060004c00dd00a2708000f1ff2e00dc
:100a80008100610001007000a07088002905070046
:100a9000530507000068a9000080fa004f03be005c
:100aa0004f02be004f01be004f00be003600f900ed
:100ab000004006003600f800809fbe00829fbe0006
:100ac000849fbe00869fbe000000fa004020800088
:100ad00000407800f043b2008040780030052100eb
:100ae00001487800000521001b010700a282800058
:100af000b3828000608280000009b00000004000e6
:100b0000cf80de00800f5100818f590015003a0020
:100b100080052100104078000004e00011003a0038
:100b2000108180000000e00007003a00400620002d
:100b300030828800803e2000208288001000200043
:100b400010818800070037001000200040818800d5
:100b5000608180008000e800f00f200000806000cd
:100b600060818800a2828000b38280006082800061
:100b70000009b000000040000000e800cf80de0067
:100b8000800f5100818f590015003a008005210027
:100b9000104078000004e00011003a00308180002d
:100ba0000000e00007003a00400620005082880064
:100bb000803e2000408288001000200030818800a4
:100bc00007003700100020005081880070818000ed
:100bd0008000e800f00f2000008060007081880035
:100be0000121800000f02f00008060000000e00084
:100bf00005003a00102180000000e00002003a00e9
:100c00000a24a9000468a9000080fa004f03be006e
:100c10004f02be004f01be004f00be003600f9007b
:100c2000004006000040da000000fe000000050061
:100c3000020007000400be00000006006022b800a9
:100c4000060220000000d0008180d2000482d20081
:100c50008582d2000000a0000202520083825a0066
:100c6000030031000202420083824a000000a1001a
:0c0c70000603e900f3ff3a000000060054
:020000040000fa
:100c7c000000fa00104ea800106ea900a1368000ea
:100c8c0000f82f008080600020022000010070001e
:100c9c00a036880001348000f00f2c0080806000aa
:100cac0000e020000100700000348800012080006a
:100cbc00f08f2f000080600000a0a00000208800b2
:100ccc000000000001208000000e200080806000e9
:100cdc0000082000808f5000faff3a000164a90040
:100cec008120800000fc2f000080600080208800a4
:100cfc0081208000000c2000010070008020880002
:100d0c00912080008003200001007000902088005a
:100d1c0012e4a80091208000f08f2f0080806000ea
:100d2c00005020000100700090208800912080006d
:100d3c0080ff2f00008060000020a0009020880021
:100d4c0012c4a8003120800000fe2f00008060003b
:100d5c000030a0003020880031208000f0ff2100fe
:100d6c000080600000f0a000302088000004a80083
:100d7c001424ef000004a900f2ff2f000300200050
:100d8c000000eb0081020700608280000009b000c7
:100d9c00000040006101b9000002eb00f10f2000df
:100dac000000eb000a020700608280000009b0001e
:100dbc00000040000000e8006101b9000002eb00f7
:100dcc00f10f20001000200001020700012080001c
:100ddc00f08f2f00008060000020880000000000d1
:100dec0001208000000e2000008060000000e00068
:100dfc00fbff3a002024ef000a24a9002a24ef006c
:100e0c005021800040218800402180001021880062
:100e1c00102180000021880030e4a80031e4a800f3
:100e2c0032e4a80033e4a80034e4a80035e4a800b8
:100e3c0036e4a80037e4a800802180003000b3001d
:100e4c00802188008121800000302000010070008a
:100e5c0080218800902180003000b3009021880010
:100e6c00912180000030200001007000902188004a
:100e7c00a02180003000b300a0218800a1218000b7
:100e8c000030200001007000a0218800b0218000fb
:100e9c003000b300b0218800b12180000030200068
:100eac0001007000b02188000c24a8008142800051
:100ebc00f0ff280080806000000026000100700018
:100ecc00804288002468a8000080fa000000060018
:100edc000000fa0004022200045888002444200078
:100eec006458880074002000745888006404200042
:100efc001458880002102100030020000201780021
:100f0c0022588800062bef0001eba80002022000fb
:100f1c0002598800024420006259880072002000a7
:100f2c0072598800220220001259880000102100fa
:100f3c00010020000000780020598800262bef00cb
:100f4c0021eba8000080fa00000006001200fa0055
:100f5c00889fbe008a9fbe008c9fbe00000f780049
:100f6c001e007800304090000080fb004400dd0043
:100f7c006100b80000f0a700110020000210210051
:100f8c00030020000002d0008202d00005004200c5
:100f9c004220a800838048004200a9004220ae00f5
:100fac004200a8000080d30093018000010178006a
:100fbc00920188000000000000007800900078008a
:100fcc009301880000000000c0ff21000080600039
:100fdc004200de006101b8001e007800220098007b
:100fec00330098001e007800304090000080fb0019
:100ffc004400dd00640040006100b80000f0a70070
:10100c001100200004102100050020000001d00078
:10101c008401d000030041004220a80085804800d4
:10102c004200a9004220ae004200a8000080d3007c
:10103c0093018000010178009201880000000000fb
:10104c000000780010007800930188000000000078
:10105c0000407800ef4060001e00780001509800be
:10106c001e007800304090000080fb004400dd0042
:10107c006c0040006100b80000f0a70011002000d7
:10108c0006102100070020000002d0008602d000cc
:10109c00050042004220a800878048004200a900b9
:1010ac004220ae004200a8000080d30093018000d3
:1010bc000101780092018800000000000000780017
:1010cc001000780093018800000000004800de004a
:1010dc00804078001e007800714898001e0078004f
:1010ec00304090000080fb004400dd006c004000ac
:1010fc006100b80000f0a7001100200008102100ca
:10110c00090020000001d0008801d000030041003c
:10111c004220a800898048004200a9004220ae006d
:10112c004200a8000080d3009301800001017800e8
:10113c009201880000000000000078001000780088
:10114c009301880000000000804078001e007800a9
:10115c00614898001e007800304090000080fb0031
:10116c004400dd006a0040006100b80000f0a700f8
:10117c001100200004102100140798000500200025
:10118c00250798001e019000ae0190000002d000cf
:10119c008202d000050042004220a8008380480053
:1011ac004200a9004220ae004200a8000080d300fb
:1011bc0092018000810178009301880000000000fa
:1011cc0000007800100078009201880000000000f8
:1011dc004800de00804078001e00780051489800de
:1011ec001e007800304090000080fb004400dd00c1
:1011fc006a0040006100b80000f0a7001100200058
:10120c0002102100320798000300200043079800c9
:10121c003e029000ce0290000001d0008401d0006c
:10122c00030041004220a800858048004200a9002c
:10123c004220ae004200a8000080d3009201800042
:10124c008101780093018800000000000000780004
:10125c0010007800920188000000000080407800a7
:10126c001e007800414898001e0078003040900025
:10127c000080fb004400dd00680040006100b80005
:10128c0000f0a70011002000041021005407980062
:10129c0005002000650798005e019000ee019000ab
:1012ac000002d0008202d000050042004220a800bb
:1012bc00838048004200a9004220ae004200a800f2
:1012cc000080d30092018000810178009301880096
:1012dc0000000000000078001000780092018800e7
:1012ec00000000004800de00804078001e007800fe
:1012fc00314898001e007800304090000080fb00c0
:10130c004400dd00680040006100b80000f0a70058
:10131c001100200002102100720798000300200029
:10132c00030f98007e0290008e0a90000001d000fe
:10133c008401d000030041004220a80085804800b1
:10134c004200a9004220ae004200a8000080d30059
:10135c009201800081017800930188000000000058
:10136c000000780010007800920188000000000056
:10137c00804078001e007800214898001e007800fc
:10138c00304090000080fb004400dd00660040000f
:10139c006100b80000f0a700110020000c10210023
:1013ac000d0020000002d0008c02d000050042008d
:1013bc004220a8008d8048004200a9004220ae00c7
:1013cc004200a8000080d3009201800081017800c7
:1013dc0093018800000000000000780010007800e5
:1013ec0092018800000000004800de008040780078
:1013fc001e007800114898001e00780030409000c4
:10140c000080fb004400dd00660040006100b80075
:10141c0000f0a700110020000a1021000b00200092
:10142c000001d0008a01d000030041004220a80036
:10143c008b8048004200a9004220ae004200a80068
:10144c000080d30092018000810178009301880014
:10145c000000000000007800100078009201880065
:10146c0000000000804078001e00780001489800c1
:10147c001e00780030409000050007004f06be00ab
:10148c004f05be004f04be000080fa0000000600ad
:10149c000200fa00004f78001e80fb006101b900c9
:1014ac0080ff2f00f1ff2f000200400083804800d6
:1014bc00f200200003002000820f5000838f5800a0
:1014cc0041003e00000601000f00370011003700fc
:1014dc0013003700150037001700370019003700cc
:1014ec001b0037001d0037001f003700210037009c
:1014fc00230037002500370027003700290037006c
:10150c002b0037002d0037002104a9002904a90065
:10151c002d0037002124a9002924a9002a00370016
:10152c002144a9002944a900270037002164a900ff
:10153c002964a900240037002184a9002984a9006a
:10154c002100370021a4a90029a4a9001e003700fe
:10155c0021c4a90029c4a9001b00370021e4a9005b
:10156c0029e4a900180037002204a9002a04a900c4
:10157c00150037002224a9002a24a90012003700e4
:10158c002244a9002a44a9000f0037002264a900b4
:10159c002a64a9000c0037002284a9002a84a9001f
:1015ac000900370022a4a9002aa4a90006003700cc
:1015bc0022c4a9002ac4a9000300370022e4a90010
:1015cc002ae4a900000000000080fa0000000600d8
:1015dc001600fa006007980072079800030f980035
:1015ec00110f9800240f98006000b800008fbe0007
:1015fc000004a8006e0090000000400000004000b5
:10160c0080007800004420000080400020079800f3
:10161c006e0090004280de000000400080007800e8
:10162c000042200000804000300798006e009000bf
:10163c004380de00000040008000780080412000e4
:10164c00008040004007980040412000500798005f
:10165c007e0190008e099000f07f20000100200098
:10166c000202780083017800000178000100780004
:10167c0002016200008061008000eb00c000dd0010
:10168c0000002000008fbe006110b8001e1f70000b
:10169c001e9770001e007800c500dd002e00900023
:1016ac00010878002e0090000080e8008000eb001c
:1016bc00010878003e009000900078006e009000c9
:1016cc00630060004200dd00f20020000010dd002d
:1016dc000080ea00808060003e00900001087800e5
:1016ec006e009000630060004200dd009e089000d8
:1016fc008008dd003e009000100078008100700032
:10170c003e009000010878004e0090009000780098
:10171c006e00900067006000000040003200200066
:10172c000010dd000080ea00808060004e00900018
:10173c00010878006e009000670060000000400017
:10174c00ae0890008008dd004e009000100078007c
:10175c00810070004e0090000108780011002000fc
:10176c006e0090000008dd00800078005e009000a4
:10177c0010007800810070005e0090000108780075
:10178c000004a9000080fa00000006000c00fa001a
:10179c003007980042079800530798006000b80083
:1017ac00008fbe000004a8003e0090000000400026
:1017bc0000004000800078000043200000804000c2
:1017cc00200798004e019000de019000f07f200071
:1017dc0001002000020278008301780000017800eb
:1017ec000100780002016200008061008000eb00c3
:1017fc00c000dd0000002000008fbe006110b800aa
:10180c001e1f70001e9770001e007800c500dd00c2
:10181c002e009000010878002e0090000080e80057
:10182c008000eb00010878000004a9000080fa0099
:10183c00000006001a00fa00889fbe008a9fbe00b6
:10184c008c9fbe0040079800214f980062079800bb
:10185c006e0090000000e800104078000080fb0053
:10186c00c800dd006e009000104078000080fb0086
:10187c0001007000000f78006e00900063004000c3
:10188c00104078000080fb00c800dd006e00900066
:10189c000080e800104078000080fb000100700020
:1018ac00100798006e009000650040001040780012
:1018bc000080fb00c800dd006e009000640040005a
:1018cc00104078000080fb00010070002007980099
:1018dc006e00900067004000104078000080fb0014
:1018ec00c800dd006e0090006600400010407800db
:1018fc000080fb00010070003007980072828000ad
:10190c00ce009000f07f2000008060004202dd00dd
:10191c004410dd006100b80000f0a70011002000a9
:10192c0006102100070020000001d0008601d00025
:10193c00030041004220a800878048004200a90013
:10194c004220ae004200a8000080d300a30180001a
:10195c000101780000007800a201880004087800da
:10196c00a3018800708280004400dd000080e80044
:10197c006100b80000f0a700110020000810210041
:10198c00090020000002d0008802d00005004200af
:10199c004220a800898048004200a9004220ae00e5
:1019ac004200a8000080d3008001eb00a20180005f
:1019bc000102780000007800a40188000308780078
:1019cc00a201880070828000ae4890008181fb00eb
:1019dc004400dd00640040006100b80000f0a70086
:1019ec00110020000610210076079800020020004c
:1019fc00020f98007e0290008e0a90000003d00027
:101a0c000401d000020043004220a8008580480059
:101a1c004200a9004220ae004200a8000080d30082
:101a2c00a20180000102780000007800a401880067
:101a3c0003087800a2018800708280004400dd0059
:101a4c00660040006100b80000f0a7001100200003
:101a5c0003102100130f980004002000240f98009d
:101a6c001e099000ae0990000002d0008202d00046
:101a7c00050042004220a800838048004200a900d3
:101a8c004220ae004200a8000080d300a2018000da
:101a9c008101780000007800a30188001e087800fe
:101aac00a2018800708280004400dd0068004000c4
:101abc006100b80000f0a700110020000610210002
:101acc00360f980002002000420f98003e0a90004a
:101adc00ce0a90000003d0000401d00002004300a5
:101aec004220a800858048004200a9004220ae0098
:101afc004200a8000080d3009e019000a20180004b
:101b0c000102780000007800a40188000308780026
:101b1c00a2018800708280004400dd006a00400051
:101b2c006100b80000f0a700110020000c1021008b
:101b3c000d0020008001d0000c02d0000480410078
:101b4c004220a8008d8048004200a9004220ae002f
:101b5c004200a8000080d300ae019000a2018000da
:101b6c000102780000007800a401880003087800c6
:101b7c00a2018800708280004400dd006c004000ef
:101b8c006100b80000f0a700110020000a1021002d
:101b9c000b0020008002d0000a03d0000680420017
:101bac004220a8008b8048004200a9004220ae00d1
:101bbc004200a8000080d300be019000a20180006a
:101bcc000102780000007800a40188000308780066
:101bdc00a201880070828000e30f500018003200d0
:101bec00e30f500007003c00e10f500010003200e2
:101bfc00e10f500010003c000000e0000a00320031
:101c0c0019003700e50f500011003200e50f5000ad
:101c1c000d003500e60f50000f003200e70f5000aa
:101c2c000f003200100037003064a8000e0037009f
:101c3c003164a8000c0037003264a8000a00370099
:101c4c003364a800080037003464a800060037008d
:101c5c003564a800040037003664a8000200370081
:101c6c003764a80000000000708280008000e8004b
:101c7c0070002800008060000000e00004003d00bf
:101c8c000000e90081ff2f00008070000000e800d8
:101c9c00708288004f06be004f05be004f04be0088
:101cac000080fa00000006000000fa00113a8000e3
:101cbc00f08f2f0080806000003020000100700049
:101ccc00103a8800313a800000e02f00008060005c
:101cdc002001b300303a8800213a8000f0f32f0045
:101cec0000806000203a8800213a800000fe2f001e
:101cfc00008060000000a000203a880040a7a900e6
:101d0c0000000000113a80000002200000806000fa
:101d1c000000e000fbff32000080fa00000006002b
:101d2c000a00fa00e0ff07006000b80010079800f6
:101d3c0021079800060037001e009000ae009000ae
:101d4c0061004000e08048001007980021079800cf
:101d5c001e019000ae019000f07b2200910020004b
:101d6c00800f5100818f5900f3ff3400007c22005a
:101d7c0091002000300798004107980000000000f7
:101d8c003e009000ce0090000081700002f0a70091
:101d9c000201ea000201ea004f11de000241780064
:101dac0061005000e080580030079800410798000f
:101dbc000204e000f2ff3a00bbff07001e2eef000a
:101dcc00f07080007070880010eea800110ea80052
:101ddc00008ea800112ea8004c30ef0091708000ee
:101dec0000082000008060000000e00007003a00be
:101dfc009170800000102000008060000000e00066
:101e0c0002003a004c30ef0029003700917080003e
:101e1c0000082000008060000000e0000800320094
:101e2c009170800000102000008060000000e00035
:101e3c0003003a0010002000608288001c0037006c
:101e4c009170800000082000008060000000e0001d
:101e5c0008003a00917080000010200000806000a3
:101e6c000000e000030032002000200060828800a7
:101e7c000f00370091708000000820000080600087
:101e8c000000e0000800320091708000001020007b
:101e9c00008060000000e0000300320030002000f1
:101eac0060828800020037004000200060828800b9
:101ebc006ffb070006fc0700ce000700e2000700de
:101ecc007000070001003700000000001e0fe80042
:101edc009e007800803e200000017800110009006f
:101eec008200d8008000fd000000e000f6ff3a0000
:101efc00a07080000000d100614060000004a200ce
:101f0c00614060000080fb00610060000000400048
:101f1c00a2708000d1ff2f008100610001007000d1
:101f2c00a0708800e9ff37000800fa0030808000bc
:101f3c0000407800004f7800107080000000d10045
:101f4c00614060000080fb004300dd0080407800b1
:101f5c009070800000407800614060000080fb00c1
:101f6c004200dd000040780080c070000ed0bf0041
:101f7c000080fb00000040000040780080c0700032
:101f8c00008180000040780000c07000104798006d
:101f9c0060818000004078002047980040818000dc
:101fac000040780030479800108180000040780095
:101fbc0040479800608280008009b000000040001b
:101fcc000e01780051c0b3001afe07000080fa0021
:101fdc00000006000800fa00b08080000040780085
:101fec00004f7800907080004e00de006140600071
:101ffc000080fb004300dd00804078009070800082
:10200c004f00de00004078000080fb004200dd0045
:10201c000040780080c070001ed0bf000080fb0024
:10202c00000040000040780080c0700020818000db
:10203c000040780000c0700010479800708180004c
:10204c0000407800204798005081800000407800c4
:10205c00304798003081800000407800404798005d
:10206c00608280008009b000000040000000e800a1
:10207c000e01780051c0b300eefd07000080fa009d
:10208c00000006000000fa0010eea800110ea800d7
:10209c00008ea800112ea800002ea800100ea8007b
:1020ac0011cea80011eea800006ea900108ea80099
:1020bc00114ea900116ea800000ea90011aea900c6
:1020cc00102ea900118ea9000080fa000000060055
:1020dc000000fa007135800000f82f00808060004d
:1020ec00400220000100700070358800010a800059
:1020fc0080ff2f00008060000000a000000a880014
:10210c004301a900010a8000f0f92f000080600053
:10211c00000a8800010a8000f03f2e000080600059
:10212c0000a0a000000a880042e1a900110a80006a
:10213c0000fe2f0000806000c000b300100a880071
:10214c000028a9002028a80001428000f0f82f00e8
:10215c0080806000000520000100700000428800b3
:10216c0071358000f00f28008080600000b02200e4
:10217c000100700070358800410a800080ff2f003c
:10218c00008060000000a000400a88004b01a900fc
:10219c00410a8000f0f92f0000806000400a88009e
:1021ac00410a8000f03f2e000080600000a0a000db
:1021bc00400a88004ae1a900510a800000fe2f0065
:1021cc0000806000c000b300500a880000a8a9007d
:1021dc0020a8a80011428000f0f82f008080600039
:1021ec000005200001007000104288000080fa00f9
:1021fc00000006000000fa000421a90004c1a90097
:10220c0021088000f0fc2f00008060000040a0003e
:10221c00200888000021ef00703821001008880089
:10222c0001428000f0ff28000080600000e0a00068
:10223c00004288000068a9002068a80005e1a800f9
:10224c000080fa00000006000000fa001021a9002e
:10225c0010c1a90081088000f0fc2f0000806000f4
:10226c000050a000800888000053270060088800f8
:10227c0011e1a8000080fa00000006000200fa003c
:10228c00000ea8000e0ea8002023ef002223ef0062
:10229c00f0002000201988003223ef002823ef00e3
:1022ac002623ef002e23ef003023ef0021e3a800bc
:1022bc000000eb00000f7800010037001e0fe80053
:1022cc0070bb20009e007800808f5000fbff340014
:0822dc000080fa00000006007a
:020000040000fa
:1022e40050100000120000008000000000110000e7
:1022f4000001000080000000001000003c0000000d
:10230400800000003c10000010000000820000006b
:10231400010001000001000001003200000a000079
:1023240032000a00000000004c100000040000000d
:08233400800000000000000021
:020000040000fa
:020000040002f8
:04afe000ceff0000a0
:020000040000fa
:020000040002f8
:04afe400ffff00006b
:020000040000fa
:020000040002f8
:04afe8007fff0000e7
:020000040000fa
:020000040002f8
:04afec0058ff00000a
:020000040000fa
:020000040002f8
:04aff0007bff0000e3
:00000001FF
